:020000040800F2
:1000000000000120A10D0008F10D0008F10D00080D
:10001000F10D0008F10D0008F10D000800000000CE
:10002000000000000000000000000000F10D0008CA
:10003000F10D000800000000F10D0008F10D0008AE
:10004000F10D0008F10D0008F10D0008F10D000898
:10005000F10D0008F10D0008F10D0008F10D000888
:10006000F10D0008F10D0008F10D0008F10D000878
:10007000F10D0008F10D0008F10D0008F10D000868
:10008000F10D0008F10D0008F10D0008000000005E
:10009000000000000000000000000000F10D00085A
:1000A000F10D0008F10D0008F10D0008F10D000838
:1000B000BD0C0008F10D0008F10D0008F10D00085D
:1000C000F10D0008F10D0008F10D0008F10D000818
:1000D000F10D0008F10D0008F10D0008000000000E
:1000E000F10D0008F10D0008F10D000800000000FE
:1000F000000000000000000000000000F10D0008FA
:1001000000000000F10D0008F10D0008F10D0008DD
:1001100000000000000000000000000000000000DF
:10012000F10D0008F10D0008F10D0008F10D0008B7
:10013000F10D0008000000000000000000000000B9
:10014000000000000000000000000000F10D0008A9
:10015000F10D0008F10D0008F10D0008F10D000887
:10016000F10D0008F10D0008000000000000000083
:10017000000000000000000000000000000000007F
:1001800000000000F10D0008000000000000000069
:04019000F10D000865
:1001940010B5054C237833B9044B13B10448AFF3BD
:1001A40000800123237010BD200000200000000007
:1001B4003C0E000808B5034B1BB103490348AFF3D9
:1001C400008008BD00000000240000203C0E000850
:1001D40080B483B000AF0346FB71084B1B68FA7907
:1001E400012101FA02F21146044A0B43136000BFD5
:1001F4000C37BD465DF8047B704700BF30380240C1
:1002040090B482B000AF0446084611461A4623460D
:10021400FB710346BB710B467B7113463B71FB7943
:100224003B4A52F823301B68BA795200032101FA81
:1002340002F2D2431046FA79354951F8222003409C
:100244001360FB79324A52F823301B687979BA7902
:10025400520001FA02F21046FA792D4951F822208F
:1002640003431360FB792A4A52F8233004331B6892
:10027400BA79012101FA02F2D2431046FA792449EB
:1002840051F82220043203401360FB79204A52F8CB
:10029400233004331B683A7902F00101BA7901FA78
:1002A40002F21046FA791A4951F822200432034323
:1002B4001360FB79164A52F823300C331B68BA7961
:1002C4005200032101FA02F2D2431046FA7910498E
:1002D40051F822200C3203401360FB790C4A52F887
:1002E40023300C331B683A79521002F00301BA79B7
:1002F400520001FA02F21046FA79054951F8222017
:100304000C320343136000BF0837BD4690BC7047EE
:100314000000002080B485B000AF0346FB710B469B
:10032400BB7113467B71FB79224A52F823301B6858
:10033400BA795200032101FA02F21A40BB795B0038
:1003440022FA03F3012B2BD17B79002B12D0FB79FA
:10035400184A52F8233014331B68BA79012101FA80
:1003640002F21046FA79134951F822201432034359
:10037400136012E0FB790F4A52F8233014331B68E0
:10038400BA79012101FA02F2D2431046FA790949F5
:1003940051F822201432034013600023FB7301E060
:1003A4000123FB73FB7B18461437BD465DF8047BC1
:1003B400704700BF0000002080B483B000AF7860B5
:1003C400084611461A460346FB700B463B8013460B
:1003D400BB70BB78642B01D93223BB707B681B686C
:1003E40023F060027B681A607B681B6823F080023C
:1003F4007B681A607B681B6843F080027B681A6024
:100404007B681B6823F010027B681A607B681B6A98
:10041400FA78013A9200012101FA02F21A437B6848
:100424001A62FB78013B032B76D801A252F823F021
:10043400450400087B040008B1040008E704000830
:100444007B689B6923F060027B689A617B689B6987
:1004540043F060027B689A617B689B6943F0080201
:100464007B689A61BA7813469B0013445B001A4672
:100474007B685A6350E07B689B6923F4C0427B68C5
:100484009A617B689B6943F4C0427B689A617B688C
:100494009B6943F400627B689A61BA7813469B00B7
:1004A40013445B001A467B689A6335E07B68DB691A
:1004B40023F060027B68DA617B68DB6943F06002E9
:1004C4007B68DA617B68DB6943F008027B68DA6188
:1004D400BA7813469B0013445B001A467B68DA63C0
:1004E4001AE07B68DB6923F4C0427B68DA617B68CD
:1004F400DB6943F4C0427B68DA617B68DB6943F4FF
:1005040000627B68DA61BA7813469B0013445B008F
:100514001A467B681A6400BF7B684FF47A72DA6209
:100524007B689A6A3B881A437B689A627B685B693A
:1005340043F001027B685A6100BF0C37BD465DF889
:10054400047B704780B483B000AF78607B681B681D
:1005540043F001027B681A6000BF0C37BD465DF8AA
:10056400047B704780B487B000AF78600B46FB70A3
:100574001346BB707B683433BB607B683833FB60E5
:100584007B683C333B617B6840337B61BB78642B85
:100594000ED8BA7813469B0013445B001A46FB78C6
:1005A400013B9B0007F118010B4453F8103C1A60FF
:1005B40000BF1C37BD465DF8047B704780B485B02E
:1005C40000AF87ED010A3860D7ED017AF5EEC07A05
:1005D400F1EE10FA0BD53B682D221A703B680133FB
:1005E4003B60D7ED017AF1EE677AC7ED017AD7ED7A
:1005F400017A9FED3F7A67EE877AFDEEE77A17EE90
:10060400903AFB60FA683B4B83FB02139910D317B3
:10061400C91A0B469B000B445B00D11ACAB23B6853
:1006240004333032D2B21A70FB68324A82FB0312AE
:100634009210DB17D31AFB60FA682E4B83FB02136C
:100644009910D317C91A0B469B000B445B00D11AAF
:10065400CAB23B6803333032D2B21A703B680233F9
:100664002E221A70FB68234A82FB03129210DB17B6
:10067400D31AFB60FA681F4B83FB02139910D3173C
:10068400C91A0B469B000B445B00D11ACAB23B68E3
:1006940001333032D2B21A70FB68164A82FB03125D
:1006A4009210DB17D31AFB60FA68124B83FB021318
:1006B4009910D317C91A0B469B000B445B00D11A3F
:1006C400CBB23033DAB23B681A703B6805330D2283
:1006D4001A703B6806330A221A703B6807330022FB
:1006E4001A7000BF1437BD465DF8047B704700BF25
:1006F4000000C8426766666680B582B000AF87EDC9
:10070400010AD7ED017AFDEEE77A17EE902A314B14
:100714001A60304B1B681E3B2F4A13602F4B1A681C
:100724002D4B1B6813442D4A13602B4B1B6807EE9B
:10073400903AF8EEE77A9FED2A7A27EE877A274BEC
:100744001B6807EE903AF8EEE77ADFED266A67EE6B
:10075400A67A77EE277A244BC3ED007A224BD3EDA9
:10076400007A9FED227AF4EEC77AF1EE10FA03DBF9
:100774001D4B1F4A1A600BE01B4BD3ED007AF5EEBC
:10078400C07AF1EE10FA03D8174B4FF000021A604A
:10079400154BD3ED007A9FED177A67EE877AFDEE5D
:1007A400E77AC7ED007A3B68DBB21A4601211248AA
:1007B400FFF7D8FE0C4BD3ED007A1048B0EE670A71
:1007C400FFF7FCFE0D4800F091F900BF0837BD4665
:1007D40080BD00BF44000020480000204C000020E1
:1007E400CDCCCC3D0AD7233C4000002048E13A3F21
:1007F40048E13A3F0000C842000C00400C000020D1
:1008040080B483B000AF0346FB7197F90730002B27
:100814000BDBFB7903F01F02074997F907305B09EB
:10082400012000FA02F241F8232000BF0C37BD4634
:100834005DF8047B704700BF00E100E080B400AFC6
:100844000F4B1B6C0E4A43F0010313644FF08043BB
:1008540040F23F629A624FF080436422DA624FF0C2
:10086400804300225A624FF080431B684FF080425D
:1008740043F00103136000BFBD465DF8047B70477D
:100884000038024080B500AF4FF08043DB684FF082
:10089400804243F00103D3601C20FFF7B1FF00BF87
:1008A40080BD80B500AF00F015FA00BF80BD000028
:1008B40080B582B000AF0346FB710B46BB71134693
:1008C4007B71334B5B6C324A43F480535364002096
:1008D400FFF77EFC0023022205210020FFF790FC95
:1008E4000023022206210020FFF78AFC00230222B3
:1008F40007210020FFF784FC264B1B6A254A43F09E
:10090400AA4343F4A0031362234B1B68224A43F413
:1009140040731360204B1B681F4A23F004031360C9
:100924001D4B1B68FA79920011461B4A0B43136056
:10093400194B1B68184A23F002031360164B1B68FB
:10094400BA7952001146144A0B431360124B1B68C8
:10095400114A23F0010313600F4B1A687B790E4987
:1009640013430B600C4B1B680B4A23F038031360D2
:10097400094B1B68084A43F018031360064B1B68B5
:10098400054A43F04003136000BF0837BD4680BDED
:1009940000380240000002400030014080B483B0BF
:1009A40000AF0346FB710D4B1B6803F00203002BE1
:1009B4000DD00B4AFB79136000BF084B1B6803F092
:1009C4008003002BF9D1064B1B68DBB200E0FF2348
:1009D40018460C37BD465DF8047B7047083001406B
:1009E4000C30014080B582B000AF0346FB7100219A
:1009F400802000F004F800BF0837BD4680BD80B5F4
:100A040082B000AF03460A46FB711346BB71FB7903
:100A140063F07F03DBB21846FFF7C0FFBB791846CB
:100A2400FFF7BCFF00BF0837BD4680BD80B582B06C
:100A340000AF03463960FB71FB7903F07F03DBB23F
:100A44001846FFF7ABFF0020FFF7A8FF03461A463E
:100A54003B681A7000BF0837BD4680BD80B500AF43
:100A64000020FFF7B5FB0023022202210020FFF73C
:100A7400C7FB1B4B1B6A1A4A23F470631362184B9F
:100A84001B6A174A43F4E0631362164B1B6C154A46
:100A940043F400331364144BDB68134A23F4805388
:100AA400D360114B1B69104A23F4405313610E4B5E
:100AB400DB680D4A23F40043D3600B4B40F283629E
:100AC4009A60094BDB68084A43F00803D360064B7D
:100AD400DB68054A43F40053D36000BF80BD00BF08
:100AE40000000240003802400044004080B485B059
:100AF40000AF78600023FB731BE0144B1B6803F00A
:100B04008003002B15D0FB7B7A6813441A780F4BB3
:100B14005A6000BF0D4B1B6803F04003002BF9D053
:100B24000A4B1B68094A23F040031360FB7B013323
:100B3400FB73FB7B7A6813441B78002BDDD100BF69
:100B440000BF1437BD465DF8047B70470044004085
:100B540080B500AFFFF782FF1248FFF7C7FF0120FF
:100B6400FFF736FB0023012200210120FFF748FB99
:100B7400002200210120FFF7CDFB012200210120EA
:100B8400FFF796FE012200210120FFF7C3FB00209E
:100B9400FFF728FF002200210120FFF7BBFB00BF65
:100BA40080BD00BF540E000880B582B000AF0023A2
:100BB400FB704FF000037B60012200210120FFF74E
:100BC400A9FBFB1C19460120FFF730FF002200217E
:100BD4000120FFF79FFBFB785BB2002B07DAD7ED10
:100BE400017AB6EE007A77EE877AC7ED017AFB7860
:100BF40003F04003002B07D0D7ED017AB5EE007A5D
:100C040077EE877AC7ED017A012200210120FFF7F0
:100C140081FBFB1C19460220FFF708FF002200217C
:100C24000120FFF777FBFB785BB207EE903AF8EE12
:100C3400E77A97ED017A77EE277AC7ED017A7B6838
:100C440007EE903AB0EE670A0837BD4680BD000053
:100C540080B500AF154B1B68144A43F008031360BA
:100C64000020FFF7B5FA0023022200210020FFF73D
:100C7400C7FA0F4B1B680E4A43F0020313600023AC
:100C84004FF4FA5201210B48FFF796FB0948FFF78E
:100C940059FCFFF75DFFFFF7D1FDFFF7F3FD4FF4BC
:100CA400FA7000F051F800F043F8FEE740380240D3
:100CB40020000240000C004080B500AF4FF080439C
:100CC4001B694FF0804223F001031361FFF7E9FD34
:100CD40000BF80BD80B582B000AF124B1B68002BF3
:100CE4000BD0114B1B68002B07D1FFF75DFF87ED7D
:100CF400010A97ED010AFFF7FFFC0B4B1B68013358
:100D0400094A1360084B1B68084A126893FBF2F106
:100D140002FB01F29B1A044A136000BF0837BD4668
:100D240080BD00BF180000203C0000201C000020F3
:100D340080B400AF034B01221A6000BFBD465DF8CA
:100D4400047B70471800002080B483B000AF786043
:100D54007B68074A82FB03125211DB17D31A054A38
:100D6400136000BF0C37BD465DF8047B704700BFBD
:100D74001F85EB511C00002080B400AF064BD3F854
:100D84008830054A43F47003C2F8883000BFBD467A
:100D94005DF8047B704700BF00ED00E0DFF834D05D
:100DA4000D480E490E4A002302E0D458C4500433BF
:100DB400C4188C42F9D30B4A0B4C002301E0136096
:100DC4000432A242FBD3FFF7D7FF00F011F8FFF77C
:100DD4003FFF704700000120000000202000002099
:100DE400680E00082000002050000020FEE70000EC
:100DF40070B50D4D0D4C641BA4100026A64209D1FC
:100E04000B4D0C4C00F018F8641BA4100026A642ED
:100E140005D170BD55F8043B98470136EEE755F807
:100E2400043B98470136F2E7600E0008600E0008A4
:100E3400600E0008640E0008F8B500BFF8BC08BCDA
:100E44009E467047F8B500BFF8BC08BC9E46704784
:0C0E540048656C6C6F205350490D0A007B
:040E6000B9010008CC
:040E640095010008EC
:100E68000000024000040240000802402D20202E0D
:100E780020200D0A00000000010000000100000011
:0400000508000DA141
:00000001FF
